:020000040000FA
:10000000020444C20012002EEF4E601CD3EF94484D
:10001000EE940D5010051DE51D941F7480948040D2
:1000200007D2008003E4F51DA200220206D3E4FFFC
:10003000FE30ED1D85BE1985BD1AC2EDAC19AD1A95
:100040001201B17BBE7A8E791678401200A6120199
:0A005000EA2253A5FDC291D29222CC
:10005B0002065AE4F5A7F5A9E5A9548060FA75A93B
:0F006B0003E5A9548060FA220203B775C6032289
:10007B00020610AD07AC06E41201B17BBE7A3079F3
:10008B007978401200A61201EAEF2493FFEE3414A4
:06009B00FE224391042245
:1000A3000206E5EC4D6011E8497017ED33EC3304BB
:1000B300600DE4FCFFFEFD22E933E8330470F8022F
:1000C300025612022158046009E4CC248150062808
:1000D300500902026028400302025DC0E0EB4A704F
:1000E30044B98006D0E0FB02024CEF4E701CBD8089
:1000F30008EBFFEAFEE9FD80EBE98DF0A4FEE5F0F5
:1001030002018FE9CDF9EAFEEBFFEF89F0A4FCE5EC
:10011300F0CE89F0A42EFFE435F0CD89F0A42DFEB6
:10012300E435F08067EF4E7005BD80D780C3EF8B59
:10013300F0A4ACF0EE8BF0A42CFCE435F0F8EF8ADD
:10014300F0A42CE5F038FCE433CB8DF0A42CFCE5D3
:10015300F03BF8EE8AF0A42CFCE5F038F8E433CF5A
:1001630089F0A42CFCE5F038CF3400CE89F0A42F1D
:10017300FFE5F03EFEE433C98DF0A42EFEE5F03931
:10018300CD8AF0A42FFFE5F03EFEE43DFD33D0E041
:10019300FB50070BBB000F020260EC2CFCEF33FF9C
:1001A300EE33FEED33FD02023875F020800E75F05C
:1001B30010800575F0087D007E007F003392D530F6
:1001C300D50312026BEC334010EF33FFEE33FEED39
:1001D30033FDEC33FCD5F0ED22E5F0247EA2D513FC
:1001E300CC92E7CDCEFF22EDD2E7CD33EC3392D5DF
:1001F30024814006E4FFFEFDFC22FCE4CFCECDCCFF
:1002030024E0501174FF80EDC3CC13CCCD13CDCEBD
:1002130013CECF13CF0470F030D5DE02026BE9D2D8
:10022300E7C933E833F892D5EDD2E7CD33EC33FCAD
:100233005002B2D522EC30E7100FBF000C0EBE0007
:10024300080DBD00040BEB6014A2D5EB13FCED927B
:10025300E7FD2274FFFCFDFEFF22E480F8A2D574C3
:10026300FF13FC7D80E480EFC3E49FFFE49EFEE484
:100273009DFDE49CFC22EB9FF5F0EA9E42F0E99D94
:1002830042F0E89C45F0221205A1C283D2ECD2AF22
:10029300751102E4F512AF12C3EF947D748094805C
:1002A300500843870185878780EC751101E5BF30CE
:1002B300E6FB7F647E0012063ED2831207637F64EF
:1002C3007E0012063EE5BF30E62DAF11EF640260FB
:1002D30006751102E4F512AF12D3EF947D74809486
:1002E30080401EE4F511E5BF20E6FB7F647E00122B
:1002F300063E1205DA800AAF11EF6402700375112E
:100303000130056B852116C2051204D05061E4F556
:1003130013F514AF3EAE3D12007E8E178F18C2AF99
:1003230085170985180AD2AFAF40AE3F12007E8E03
:10033300178F18C2AF85170B85180CD2AFAF42AE1B
:100343004112007E8E178F18C2AF85170D85180EC8
:10035300D2AFAF3CAE3B12007E8E178F18C2AF8573
:10036300170F851810D2AF200405D20475960330F9
:10037300032AC2030514E51470020513D3E514948C
:10038300B0E513940E4015751102E4F512AF12C3D4
:10039300EF94327480948040F41205DA1200034023
:1003A300030202C8AF11EF640270030202C87511A1
:1003B300030202C8C0E0C0D075D000C006C0075316
:1003C300917F0512D2030508AF117E00EF7006D2AC
:1003D30085F508805BEF64014E7006C285F50880E1
:1003E3004FEF64024E7020AF08FEC3EF9405748094
:1003F30094805004C2858038C3EF940AEE648094DD
:1004030080502AD2858029E51164037023AF08FE4A
:10041300C3EF9450748094805004C2858012C3EF5C
:100423009464EE648094805004D285800375080040
:1004330075A70020ED02D2ECD007D006D0D0D0E0D3
:1004430032787FE4F6D8FD75814202048B02028A7A
:10045300E493A3F8E493A34003F68001F208DFF4E6
:100463008029E493A3F85407240CC8C333C4540F5E
:100473004420C8834004F456800146F6DFE4800B31
:1004830001020408102040809006A6E47E019360D8
:10049300BCA3FF543F30E509541FFEE493A360015E
:1004A3000ECF54C025E060A840B8E493A3FAE493C8
:1004B300A3F8E493A3C8C582C8CAC583CAF0A3C876
:1004C300C582C8CAC583CADFE9DEE780BEC202AF00
:1004D30021EF640F707AAF23EF5407AD22F53BEDA4
:1004E300F53CAF24EF75F020A4FFE5F05407FEE5DB
:1004F30023131313541FFDEEF53DEF4DF53EAF25CA
:10050300EF75F004A4FFE524C413135403FDE5F0D1
:10051300FCEF4DFDAF26EF25E025E054074CF53FFA
:10052300EDF540AF27EF75F080A4FFE5F05407FE2B
:10053300E526C313FDEEF541EF4DF542E538A2E2A2
:100543009200E538A2E39201200005200102D202C5
:10055300A20222E4F5A77597A5F51CF51BF51AF57C
:1005630019E47F19FEFDFCAB1CAA1BA91AA819C329
:10057300120279501800E51C2401F51CE4351BF523
:100583001BE4351AF51AE43519F51980D4A2AF9294
:1005930000C2AF7597DE7597ADA20092AF22120528
:1005A3005612072712073112076B12077212005EE9
:1005B30012071C12073B12074512068E12074F1231
:1005C300075912007612070F1206BD12067512079D
:1005D3000212009D0206F5C2AFE4F5FBF5FCF5E956
:1005E300F5EA75A710F5ABF5ACF5B2F5B3F5A77F52
:1005F30014FE12063EE4F596C283120052E4F5118E
:100603007FC8FE12063E75C90875870222C0E0C086
:10061300D075D000C00030C81B859215C2C87421A4
:10062300253AF8A615C205C3E53A94187480948058
:100633005002053AD000D0D0D0E032EF4E6017AD73
:10064300F9ADFA74302DFDACF9ACFAECB505F8EF61
:100653001F70E81E80E52230D80A850AFB8509FC55
:10066300C2D8800B30D908850CE9850BEAC2D9C200
:10067300DF3275A71075C24175D18375E30375C564
:10068300FF75C6FF759F0875C9032275A72075946A
:100693004375933D75DA027596FF75950B43C81044
:1006A300D2D822011D00C104011100010800021368
:1006B3000000C103013A00C1050043AF2443AF105A
:1006C30075B31075B918E4F5DF75BB1143E88022E3
:1006D300C0E0E53A64187002D205753A00C2CFD083
:1006E300E032539DF7850EAB850DAC8510B2850FB7
:1006F300B332E4F5A775E69075F32175A82022754A
:10070300FD2075CBF075CA0D43C8042275A730755B
:10071300AAB175AC2E75BF8022C2DE75D902759E53
:1007230003D2DE2275A44075F1FF75D42B22E4F5C4
:10073300A575F27775D50F2253F77F75DACBE4F5FC
:10074300FC2253F77F75DBCBE4F5EA2275AFF07536
:1007530084C043B1802275B20F7585A075B3802222
:10076300C292D29143A5022275E20275E35122752A
:06077300A71075C1102261
:00000001FF
